:020000040000FA
:1020000035EF3BF0FFFFFFFFFFFFFFFFFFFFFFFF8D
:10201000FFFFFFFFFFFFFFFFFFFFFFFFFFFFFFFFD0
:10202000FFFFFFFFFFFFFFFFFFFFFFFFFFFFFFFFC0
:10203000FFFFFFFFFFFFFFFFFFFFFFFFFFFFFFFFB0
:10764000FFFFFFFFFFFFFFFFFFFFFFFFFFFFFFFF4A
:10765000FFFFFFFFFFFFFFFFFFFFFFFF000E976E23
:10766000000E906E000E916E12003A6A396A000E9A
:10767000F86E0001CDEF3BF0FE0EBB6E000EBC6E4F
:107680009E92060EBA6E1200000EC16E860EC06E7D
:10769000000EC36E000EC46E010EC26E12001C0EF0
:1076A000BD6E000EB66E800EB76E010EB96E000E86
:1076B000BF6E7F0EBE6E1200AEEC3BF069EC3BF08D
:1076C0004FEC3BF03CEC3BF02EEC3BF044EC3BF061
:1076D0001200700ED36E000ED26E800E9B6E000EE6
:1076E000B56ED2AE76EF3BF078EF3BF071EF3BF04A
:1076F000120001C003F002C004F0D890043203323B
:10770000D890043203320350BE6E01C003F0030E62
:107710000316033AF00E0316BD50CF0B0310BD6ED7
:107720001200056E05C003F003460346C25003185D
:10773000830B0318C26EC280C282C2B2A2EF3BF0BA
:10774000A4EF3BF09DEF3BF0C450046E036AC350BE
:107750000324016E000E0420026E1200000E8D6ED6
:10776000000E8C6E000E896E000E8A6E000E8B6EFF
:10777000070E966E92689368C30E946E95680F011B
:107780005E69C40E5D6F3F0E5C6F070E5F6F2F0E5C
:107790005B6F000E856EF18E12005CEC3BF00A0E02
:1077A000186ED70E196EC30E1A6E3F0E1B6E030EA7
:1077B00091EC3BF001C006F002C007F0086A096ACC
:1077C000000E91EC3CF006C014F007C015F008C0A4
:1077D00016F009C017F06BEC3DF014C02DF015C089
:1077E0002EF016C02FF017C030F00EEC3CF02DC07C
:1077F00037F02EC038F0040E385CD8B002EF3CF001
:1078000004EF3CF0CFEF3BF037C001F038C002F09E
:1078100079EC3BF0CFEF3BF000EF10F02F34303439
:10782000366E3650D8A417EF3CF019EF3CF023EF3A
:107830003CF0000E2D6E000E2E6E000E2F6E000E10
:10784000306E90EF3CF02DC031F02EC032F02FC0E2
:1078500033F030C034F0200E33EF3CF0D8903432A7
:10786000333232323132E82E2EEF3CF03150356E69
:107870002F8EFF0E2D16FF0E2E16FF0E2F16000E4A
:107880003016960E365E36BE4AEF3CF048EF3CF0BE
:1078900060EF3CF03650800A970FD8B052EF3CF0C2
:1078A00054EF3CF056EF3CF019EF3CF0D8903032FA
:1078B0002F322E322D32363E56EF3CF078EF3CF030
:1078C0001F0E366466EF3CF068EF3CF070EF3CF062
:1078D00019EF3CF0D8902D362E362F36303636063E
:1078E0003650D8A476EF3CF078EF3CF06AEF3CF0ED
:1078F0003550D8B47EEF3CF080EF3CF088EF3CF0A0
:10790000301E2F1E2E1E2D6C000E2E222F223022F6
:107910002DC02DF02EC02EF02FC02FF030C030F033
:1079200012000E6E0E50D8B498EF3CF09AEF3CF077
:10793000BCEF3CF009BEA1EF3CF09FEF3CF0BCEF88
:107940003CF006C00AF007C00BF008C00CF009C0FC
:107950000DF00A1E0B1E0C1E0D1E0A2A000E0B2215
:107960000C220D220AC010F00BC011F00CC012F056
:107970000DC013F0C4EF3CF006C010F007C011F0CA
:1079800008C012F009C013F00650071008100910C3
:10799000D8A4CDEF3CF0CFEF3CF0D9EF3CF0000E97
:1079A000066E000E076E000E086E000E096E6AEF7E
:1079B0003DF0960E0F6EE3EF3CF00F2AD890133295
:1079C000123211321032000E10140A6E000E111411
:1079D0000B6E000E12140C6EFE0E13140D6E0A5078
:1079E0000B100C100D10D8A4F8EF3CF0FAEF3CF09F
:1079F000DDEF3CF008EF3DF00F2A010E1026000EDF
:107A0000112212221322D890133212321132103264
:107A1000000E10140A6E000E11140B6E000E1214DC
:107A20000C6EFF0E13140D6E0A500B100C100D107F
:107A3000D8A41DEF3DF01FEF3DF0FCEF3CF027EF29
:107A40003DF00F06D890103611361236133612BE9E
:107A50002CEF3DF02EEF3DF036EF3DF0020E0F60C3
:107A600034EF3DF036EF3DF021EF3DF00FB03BEF4E
:107A70003DF03DEF3DF03EEF3DF0129ED8900F32CD
:107A80000FC00AF00B6A0C6A0D6A0AC00DF00C6A8E
:107A90000B6A0A6A0A5010120B5011120C50121283
:107AA0000D5013120E50D8B458EF3DF05AEF3DF080
:107AB00062EF3DF009BE61EF3DF05FEF3DF062EF38
:107AC0003DF0138E10C006F011C007F012C008F090
:107AD00013C009F012001750800B206E17501724A6
:107AE000266E16AE76EF3DF078EF3DF079EF3DF083
:107AF00026802650D8B47FEF3DF081EF3DF094EF23
:107B00003DF02628D8A487EF3DF089EF3DF091EFB6
:107B10003DF0000E146E000E156E000E166E000E77
:107B2000176E168E9CEF3DF0000E146E000E156E53
:107B3000000E166E000E176E1B50800B201A1B5085
:107B40001B24256E1AAEA7EF3DF0A9EF3DF0AAEF7A
:107B50003DF025802550D8B4B0EF3DF0B2EF3DF0B8
:107B6000C5EF3DF02528D8A4B8EF3DF0BAEF3DF0C1
:107B7000C2EF3DF0000E186E000E196E000E1A6E68
:107B8000000E1B6E1A8ECDEF3DF0000E186E000E2B
:107B9000196E000E1A6E000E1B6E2550D8B4D3EF6E
:107BA0003DF0D5EF3DF0DDEF3DF02650D8A4DBEF02
:107BB0003DF0DDEF3DF0E7EF3DF0000E146E000EFE
:107BC000156E000E166E000E176E7FEF3FF01A5006
:107BD0001402F3CF2BF0F4CF2CF02B50216E226A3D
:107BE000236A246A2C50276E286A296A2A6A195047
:107BF0001502F3CF2BF0F4CF2CF02B502126000EE2
:107C00002222232224222C502726000E2822292239
:107C10002A2218501602F3CF2BF0F4CF2CF02B5061
:107C20002126000E2222232224222C502726000E59
:107C3000282229222A2223C024F022C023F021C096
:107C400022F0216A18501502F3CF2BF0F4CF2CF05C
:107C50002B5021262C502222000E2322000E2422FB
:107C600019501402F3CF2BF0F4CF2CF02B50212617
:107C70002C502222000E2322000E242223C024F0A6
:107C800022C023F021C022F0216A18501402F3CF41
:107C90002BF0F4CF2CF02B5021262C502222000E5A
:107CA0002322000E24221A501502F3CF2BF0F4CF1A
:107CB0002CF02B5027262C502822000E2922000EB3
:107CC0002A2219501602F3CF2BF0F4CF2CF02B50B0
:107CD00027262C502822000E2922000E2A221A5074
:107CE0001602F3CF2BF0F4CF2CF02B501C6E2C503F
:107CF0001D6E1E6A1F6A1EC01FF01DC01EF01CC034
:107D00001DF01C6A1C5027261D5028221E502922B7
:107D10001F502A2221C01CF022C01DF023C01EF0DB
:107D200024C01FF0190E9AEF3EF0D8901F321E3279
:107D30001D321C32E82E95EF3EF01C5027261D50B8
:107D400028221E5029221F502A2223C024F022C09C
:107D500023F021C022F0216A255026C01CF01D6AA4
:107D60001C26000E1D22820E1C242B6EFF0E1D20D1
:107D70002C6ED0EF3EF0D8902736283629362A369A
:107D800024AEC5EF3EF0C7EF3EF0C8EF3EF02780CF
:107D9000D89021362236233624362B06D8A02C063E
:107DA00029AED5EF3EF0D7EF3EF0BBEF3EF0000E30
:107DB000256E24AEDEEF3EF0E0EF3EF004EF3FF044
:107DC000FF0E21141C6EFF0E22141D6EFF0E2314D5
:107DD0001E6E7F0E24141F6E1C501D101E101F10CF
:107DE000D8B4F5EF3EF0F7EF3EF0FBEF3EF0010EBA
:107DF000256E04EF3FF027A000EF3FF002EF3FF0C9
:107E000004EF3FF0F7EF3EF02550D8B40AEF3FF013
:107E10000CEF3FF030EF3FF0010E2726000E282236
:107E200029222A222AA017EF3FF019EF3FF030EF66
:107E30003FF027C01CF028C01DF029C01EF02AC04A
:107E40001FF01F341F321E321D321C321CC027F09F
:107E50001DC028F01EC029F01FC02AF02B4A2C2A72
:107E60002CBE3BEF3FF02C5008E12B28D8A03BEF75
:107E70003FF03DEF3FF047EF3FF0000E276E000E62
:107E8000286E800E296E7F0E2A6E75EF3FF02CBE95
:107E900054EF3FF02C5006E12B04D8B052EF3FF0E6
:107EA00054EF3FF060EF3FF0000E276E000E286E9B
:107EB000000E296E000E2A6E000E206E75EF3FF048
:107EC0002BC026F0FF0E2716FF0E28167F0E291650
:107ED000000E2A1626A06FEF3FF071EF3FF072EF11
:107EE0003FF0298ED89026302A6E20502A1227C0C3
:107EF00014F028C015F029C016F02AC017F012009F
:020000040030CA
:0400000003285F3C36
:0200060081FF78
:020000040020DA
:08000000040F050400000000DC
:00000001FF
