:020000040000FA
:102000007DEF3BF0FFFFFFFFFFFFFFFFFFFFFFFF45
:10201000FFFFFFFFFFFFFFFFFFFFFFFFFFFFFFFFD0
:1076E000FFFFFFFFFFFFFFFFFFFFFFFFFFFFFFFFAA
:1076F000FFFFFFFFFFFFFFFFFFFF0001CAEF3BF0AF
:10770000C250C30B0C09C26EC280BE0EC06E120006
:10771000C150F00B0B09C16E000E8B6E000E896E0E
:1077200094941200FE0ECB6E000ECC6E060ECA6E46
:107730000C0EBD6ECA841200C282C2B2A2EF3BF030
:10774000A4EF3BF09DEF3BF0C450046E036AC350BE
:107750000324056E000E0420066E05C001F006C06D
:1077600002F0120001C003F002C004F0D89004320D
:107770000332D890043203320350BE6E01C003F0CE
:10778000030E0316033AF00E0316BD50CF0B031081
:10779000BD6E120080EC3BF088EC3BF092EC3BF0CD
:1077A0000A0E196ED70E1A6EC30E1B6E3F0E1C6E9C
:1077B0009CEC3BF001C007F002C008F0096A0A6ABD
:1077C000000E91EC3CF007C015F008C016F009C09F
:1077D00017F00AC018F06BEC3DF015C02EF016C083
:1077E0002FF017C030F018C031F00EEC3CF02EC076
:1077F00038F02FC039F0040E395CD8B002EF3CF0FD
:1078000004EF3CF0D0EF3BF038C001F039C002F09B
:10781000B2EC3BF0D0EF3BF000EF10F030343134FD
:10782000376E3750D8A417EF3CF019EF3CF023EF38
:107830003CF0000E2E6E000E2F6E000E306E000E0D
:10784000316E90EF3CF02EC032F02FC033F030C0DC
:1078500034F031C035F0200E33EF3CF0D8903532A3
:10786000343233323232E82E2EEF3CF03250366E64
:10787000308EFF0E2E16FF0E2F16FF0E3016000E46
:107880003116960E375E37BE4AEF3CF048EF3CF0BB
:1078900060EF3CF03750800A970FD8B052EF3CF0C1
:1078A00054EF3CF056EF3CF019EF3CF0D8903132F9
:1078B00030322F322E32373E56EF3CF078EF3CF02C
:1078C0001F0E376466EF3CF068EF3CF070EF3CF061
:1078D00019EF3CF0D8902E362F3630363136370639
:1078E0003750D8A476EF3CF078EF3CF06AEF3CF0EC
:1078F0003650D8B47EEF3CF080EF3CF088EF3CF09F
:10790000311E301E2F1E2E6C000E2F2230223122EF
:107910002EC02EF02FC02FF030C030F031C031F02B
:1079200012000F6E0F50D8B498EF3CF09AEF3CF075
:10793000BCEF3CF00ABEA1EF3CF09FEF3CF0BCEF87
:107940003CF007C00BF008C00CF009C00DF00AC0F5
:107950000EF00B1E0C1E0D1E0E1E0B2A000E0C220E
:107960000D220E220BC011F00CC012F00DC013F04E
:107970000EC014F0C4EF3CF007C011F008C012F0C4
:1079800009C013F00AC014F00750081009100A10BB
:10799000D8A4CDEF3CF0CFEF3CF0D9EF3CF0000E97
:1079A000076E000E086E000E096E000E0A6E6AEF7A
:1079B0003DF0960E106EE3EF3CF0102AD890143292
:1079C000133212321132000E11140B6E000E12140B
:1079D0000C6E000E13140D6EFE0E14140E6E0B5072
:1079E0000C100D100E10D8A4F8EF3CF0FAEF3CF09C
:1079F000DDEF3CF008EF3DF0102A010E1126000EDD
:107A0000122213221422D89014321332123211325D
:107A1000000E11140B6E000E12140C6E000E1314D7
:107A20000D6EFF0E14140E6E0B500C100D100E1078
:107A3000D8A41DEF3DF01FEF3DF0FCEF3CF027EF29
:107A40003DF01006D890113612361336143613BE98
:107A50002CEF3DF02EEF3DF036EF3DF0020E1060C2
:107A600034EF3DF036EF3DF021EF3DF010B03BEF4D
:107A70003DF03DEF3DF03EEF3DF0139ED8901032CB
:107A800010C00BF00C6A0D6A0E6A0BC00EF00D6A86
:107A90000C6A0B6A0B5011120C5012120D5013127B
:107AA0000E5014120F50D8B458EF3DF05AEF3DF07D
:107AB00062EF3DF00ABE61EF3DF05FEF3DF062EF37
:107AC0003DF0148E11C007F012C008F013C009F089
:107AD00014C00AF012001850800B216E18501824A0
:107AE000276E17AE76EF3DF078EF3DF079EF3DF081
:107AF00027802750D8B47FEF3DF081EF3DF094EF21
:107B00003DF02728D8A487EF3DF089EF3DF091EFB5
:107B10003DF0000E156E000E166E000E176E000E74
:107B2000186E178E9CEF3DF0000E156E000E166E4F
:107B3000000E176E000E186E1C50800B211A1C5080
:107B40001C24266E1BAEA7EF3DF0A9EF3DF0AAEF77
:107B50003DF026802650D8B4B0EF3DF0B2EF3DF0B6
:107B6000C5EF3DF02628D8A4B8EF3DF0BAEF3DF0C0
:107B7000C2EF3DF0000E196E000E1A6E000E1B6E65
:107B8000000E1C6E1B8ECDEF3DF0000E196E000E28
:107B90001A6E000E1B6E000E1C6E2650D8B4D3EF6A
:107BA0003DF0D5EF3DF0DDEF3DF02750D8A4DBEF01
:107BB0003DF0DDEF3DF0E7EF3DF0000E156E000EFD
:107BC000166E000E176E000E186E7FEF3FF01B5002
:107BD0001502F3CF2CF0F4CF2DF02C50226E236A37
:107BE000246A256A2D50286E296A2A6A2B6A1A503F
:107BF0001602F3CF2CF0F4CF2DF02C502226000EDD
:107C00002322242225222D502826000E29222A2232
:107C10002B2219501702F3CF2CF0F4CF2DF02C505B
:107C20002226000E2322242225222D502826000E53
:107C300029222A222B2224C025F023C024F022C08E
:107C400023F0226A19501602F3CF2CF0F4CF2DF056
:107C50002C5022262D502322000E2422000E2522F5
:107C60001A501502F3CF2CF0F4CF2DF02C50222611
:107C70002D502322000E2422000E252224C025F0A0
:107C800023C024F022C023F0226A19501502F3CF3A
:107C90002CF0F4CF2DF02C5022262D502322000E54
:107CA0002422000E25221B501602F3CF2CF0F4CF15
:107CB0002DF02C5028262D502922000E2A22000EAD
:107CC0002B221A501702F3CF2CF0F4CF2DF02C50AA
:107CD00028262D502922000E2A22000E2B221B506E
:107CE0001702F3CF2CF0F4CF2DF02C501D6E2D5039
:107CF0001E6E1F6A206A1FC020F01EC01FF01DC02C
:107D00001EF01D6A1D5028261E5029221F502A22AF
:107D100020502B2222C01DF023C01EF024C01FF0D3
:107D200025C020F0190E9AEF3EF0D89020321F3275
:107D30001E321D32E82E95EF3EF01D5028261E50B3
:107D400029221F502A2220502B2224C025F023C094
:107D500024F022C023F0226A265027C01DF01E6A9C
:107D60001D26000E1E22820E1D242C6EFF0E1E20CC
:107D70002D6ED0EF3EF0D890283629362A362B3695
:107D800025AEC5EF3EF0C7EF3EF0C8EF3EF02880CD
:107D9000D89022362336243625362C06D8A02D0638
:107DA0002AAED5EF3EF0D7EF3EF0BBEF3EF0000E2F
:107DB000266E25AEDEEF3EF0E0EF3EF004EF3FF042
:107DC000FF0E22141D6EFF0E23141E6EFF0E2414D0
:107DD0001F6E7F0E2514206E1D501E101F102010C8
:107DE000D8B4F5EF3EF0F7EF3EF0FBEF3EF0010EBA
:107DF000266E04EF3FF028A000EF3FF002EF3FF0C7
:107E000004EF3FF0F7EF3EF02650D8B40AEF3FF012
:107E10000CEF3FF030EF3FF0010E2826000E292234
:107E20002A222B222BA017EF3FF019EF3FF030EF63
:107E30003FF028C01DF029C01EF02AC01FF02BC043
:107E400020F0203420321F321E321D321DC028F097
:107E50001EC029F01FC02AF020C02BF02C4A2D2A6A
:107E60002DBE3BEF3FF02D5008E12C28D8A03BEF72
:107E70003FF03DEF3FF047EF3FF0000E286E000E61
:107E8000296E800E2A6E7F0E2B6E75EF3FF02DBE91
:107E900054EF3FF02D5006E12C04D8B052EF3FF0E4
:107EA00054EF3FF060EF3FF0000E286E000E296E99
:107EB000000E2A6E000E2B6E000E216E75EF3FF045
:107EC0002CC027F0FF0E2816FF0E29167F0E2A164B
:107ED000000E2B1627A06FEF3FF071EF3FF072EF0F
:107EE0003FF02A8ED89027302B6E21502B1228C0BD
:107EF00015F029C016F02AC017F02BC018F0120098
:020000040030CA
:08000000000E181EFF8181FFB4
:020000040020DA
:080000000B080C0900000000D0
:00000001FF
